{"contracts/Raffle.sol":{"Raffle":{"abi":[{"inputs":[{"internalType":"address","name":"vrfCoordinatorV2","type":"address"},{"internalType":"uint256","name":"entranceFee","type":"uint256"},{"internalType":"bytes32","name":"gasLane","type":"bytes32"},{"internalType":"uint64","name":"subscriptionId","type":"uint64"},{"internalType":"uint32","name":"callbackGasLimit","type":"uint32"},{"internalType":"uint256","name":"interval","type":"uint256"}],"stateMutability":"nonpayable","type":"constructor"},{"inputs":[{"internalType":"address","name":"have","type":"address"},{"internalType":"address","name":"want","type":"address"}],"name":"OnlyCoordinatorCanFulfill","type":"error"},{"inputs":[],"name":"OnlySimulatedBackend","type":"error"},{"inputs":[],"name":"Raffle__NotEnoughETHEntered","type":"error"},{"inputs":[],"name":"Raffle__NotOpen","type":"error"},{"inputs":[],"name":"Raffle__TransferFailed","type":"error"},{"inputs":[{"internalType":"uint256","name":"currentBalance","type":"uint256"},{"internalType":"uint256","name":"numPlayers","type":"uint256"},{"internalType":"uint256","name":"raffleState","type":"uint256"}],"name":"Raffle__UpkeepNotNeeded","type":"error"},{"anonymous":false,"inputs":[{"indexed":true,"internalType":"address","name":"player","type":"address"}],"name":"RaffleEnter","type":"event"},{"anonymous":false,"inputs":[{"indexed":true,"internalType":"uint256","name":"requestId","type":"uint256"}],"name":"RequestedRaffleWinner","type":"event"},{"anonymous":false,"inputs":[{"indexed":true,"internalType":"address","name":"winner","type":"address"}],"name":"WinnerPicked","type":"event"},{"inputs":[{"internalType":"bytes","name":"","type":"bytes"}],"name":"checkUpkeep","outputs":[{"internalType":"bool","name":"upkeepNeeded","type":"bool"},{"internalType":"bytes","name":"","type":"bytes"}],"stateMutability":"view","type":"function"},{"inputs":[],"name":"enterRaffle","outputs":[],"stateMutability":"payable","type":"function"},{"inputs":[],"name":"getEntranceFee","outputs":[{"internalType":"uint256","name":"","type":"uint256"}],"stateMutability":"view","type":"function"},{"inputs":[],"name":"getLatestTimestamp","outputs":[{"internalType":"uint256","name":"","type":"uint256"}],"stateMutability":"view","type":"function"},{"inputs":[],"name":"getNumWords","outputs":[{"internalType":"uint32","name":"","type":"uint32"}],"stateMutability":"pure","type":"function"},{"inputs":[],"name":"getNumberOfPlayers","outputs":[{"internalType":"uint256","name":"","type":"uint256"}],"stateMutability":"view","type":"function"},{"inputs":[{"internalType":"uint256","name":"index","type":"uint256"}],"name":"getPlayer","outputs":[{"internalType":"address","name":"","type":"address"}],"stateMutability":"view","type":"function"},{"inputs":[],"name":"getRaffleState","outputs":[{"internalType":"enum Raffle.RaffleState","name":"","type":"uint8"}],"stateMutability":"view","type":"function"},{"inputs":[],"name":"getRecentWinner","outputs":[{"internalType":"address","name":"","type":"address"}],"stateMutability":"view","type":"function"},{"inputs":[],"name":"getRequestConfirmations","outputs":[{"internalType":"uint16","name":"","type":"uint16"}],"stateMutability":"pure","type":"function"},{"inputs":[{"internalType":"bytes","name":"","type":"bytes"}],"name":"performUpkeep","outputs":[],"stateMutability":"nonpayable","type":"function"},{"inputs":[{"internalType":"uint256","name":"requestId","type":"uint256"},{"internalType":"uint256[]","name":"randomWords","type":"uint256[]"}],"name":"rawFulfillRandomWords","outputs":[],"stateMutability":"nonpayable","type":"function"}],"devdoc":{"author":"Oleh Yatskiv","details":"This contract uses Chainlink VRF v2 and Chainlink Automation","kind":"dev","methods":{"checkUpkeep(bytes)":{"details":"This is the function that the Chainlink Automation nodes call they look for the `upkeepNeeded` to return true The following should be true in order to return true: 1. Our time interval should have passed 2. The lottery should have at least one player, and have some ETH 3. Our subscription is funded with enough LINK 4. The lottery should be in an \"open\" state"},"enterRaffle()":{"details":"This is the function that users call to enter the raffle"},"performUpkeep(bytes)":{"details":"This is the function that is performed by the Chainlink Automation nodes when the `upkeepNeeded` returns true It requests a random number from the Chainlink VRF node"}},"title":"A sample raffle contract","version":1},"evm":{"bytecode":{"linkReferences":{},"object":"6101606040523480156200001257600080fd5b50604051620017cd380380620017cd833981810160405281019062000038919062000294565b858073ffffffffffffffffffffffffffffffffffffffff1660808173ffffffffffffffffffffffffffffffffffffffff1681525050508460a081815250508573ffffffffffffffffffffffffffffffffffffffff1660c08173ffffffffffffffffffffffffffffffffffffffff16815250508360e081815250508267ffffffffffffffff166101008167ffffffffffffffff16815250508163ffffffff166101208163ffffffff16815250506000600160146101000a81548160ff021916908360018111156200010d576200010c62000330565b5b0217905550426002819055508061014081815250505050505050506200035f565b600080fd5b600073ffffffffffffffffffffffffffffffffffffffff82169050919050565b6000620001608262000133565b9050919050565b620001728162000153565b81146200017e57600080fd5b50565b600081519050620001928162000167565b92915050565b6000819050919050565b620001ad8162000198565b8114620001b957600080fd5b50565b600081519050620001cd81620001a2565b92915050565b6000819050919050565b620001e881620001d3565b8114620001f457600080fd5b50565b6000815190506200020881620001dd565b92915050565b600067ffffffffffffffff82169050919050565b6200022d816200020e565b81146200023957600080fd5b50565b6000815190506200024d8162000222565b92915050565b600063ffffffff82169050919050565b6200026e8162000253565b81146200027a57600080fd5b50565b6000815190506200028e8162000263565b92915050565b60008060008060008060c08789031215620002b457620002b36200012e565b5b6000620002c489828a0162000181565b9650506020620002d789828a01620001bc565b9550506040620002ea89828a01620001f7565b9450506060620002fd89828a016200023c565b93505060806200031089828a016200027d565b92505060a06200032389828a01620001bc565b9150509295509295509295565b7f4e487b7100000000000000000000000000000000000000000000000000000000600052602160045260246000fd5b60805160a05160c05160e051610100516101205161014051611405620003c8600039600061078c015260006106550152600061063201526000610611015260006105d50152600081816102b401526103b10152600081816102f1015261034501526114056000f3fe6080604052600436106100a75760003560e01c806353a2c19a1161006457806353a2c19a146101895780635f1b0fd8146101b45780636e04ff0d146101df578063e55ae4e81461021d578063f43b52cb1461025a578063fd6673f514610285576100a7565b806309bc33a7146100ac578063115cbaf5146100d75780631fe543e3146101025780632cfcc5391461012b5780634585e33b14610135578063473f1ddc1461015e575b600080fd5b3480156100b857600080fd5b506100c16102b0565b6040516100ce9190610b59565b60405180910390f35b3480156100e357600080fd5b506100ec6102d8565b6040516100f99190610beb565b60405180910390f35b34801561010e57600080fd5b5061012960048036038101906101249190610d9f565b6102ef565b005b6101336103af565b005b34801561014157600080fd5b5061015c60048036038101906101579190610e56565b61051e565b005b34801561016a57600080fd5b5061017361070e565b6040516101809190610ee4565b60405180910390f35b34801561019557600080fd5b5061019e610738565b6040516101ab9190610f1e565b60405180910390f35b3480156101c057600080fd5b506101c9610741565b6040516101d69190610f56565b60405180910390f35b3480156101eb57600080fd5b5061020660048036038101906102019190611026565b61074a565b604051610214929190611109565b60405180910390f35b34801561022957600080fd5b50610244600480360381019061023f9190611139565b61080b565b6040516102519190610ee4565b60405180910390f35b34801561026657600080fd5b5061026f610852565b60405161027c9190610b59565b60405180910390f35b34801561029157600080fd5b5061029a61085c565b6040516102a79190610b59565b60405180910390f35b60007f0000000000000000000000000000000000000000000000000000000000000000905090565b6000600160149054906101000a900460ff16905090565b7f000000000000000000000000000000000000000000000000000000000000000073ffffffffffffffffffffffffffffffffffffffff163373ffffffffffffffffffffffffffffffffffffffff16146103a157337f00000000000000000000000000000000000000000000000000000000000000006040517f1cf993f4000000000000000000000000000000000000000000000000000000008152600401610398929190611166565b60405180910390fd5b6103ab8282610868565b5050565b7f0000000000000000000000000000000000000000000000000000000000000000341015610409576040517fbd4e069500000000000000000000000000000000000000000000000000000000815260040160405180910390fd5b6000600181111561041d5761041c610b74565b5b600160149054906101000a900460ff16600181111561043f5761043e610b74565b5b14610476576040517f1425571c00000000000000000000000000000000000000000000000000000000815260040160405180910390fd5b6000339080600181540180825580915050600190039060005260206000200160009091909190916101000a81548173ffffffffffffffffffffffffffffffffffffffff021916908373ffffffffffffffffffffffffffffffffffffffff1602179055503373ffffffffffffffffffffffffffffffffffffffff167f0805e1d667bddb8a95f0f09880cf94f403fb596ce79928d9f29b74203ba284d460405160405180910390a2565b60006105386040518060200160405280600081525061074a565b509050806105a75747600080549050600160149054906101000a900460ff16600181111561056957610568610b74565b5b6040517f584327aa00000000000000000000000000000000000000000000000000000000815260040161059e9392919061118f565b60405180910390fd5b60018060146101000a81548160ff021916908360018111156105cc576105cb610b74565b5b021790555060007f000000000000000000000000000000000000000000000000000000000000000073ffffffffffffffffffffffffffffffffffffffff16635d3b1d307f00000000000000000000000000000000000000000000000000000000000000007f000000000000000000000000000000000000000000000000000000000000000060037f000000000000000000000000000000000000000000000000000000000000000060016040518663ffffffff1660e01b8152600401610696959493929190611202565b6020604051808303816000875af11580156106b5573d6000803e3d6000fd5b505050506040513d601f19601f820116820180604052508101906106d9919061126a565b9050807fcd6e45c8998311cab7e9d4385596cac867e20a0587194b954fa3a731c93ce78b60405160405180910390a250505050565b6000600160009054906101000a900473ffffffffffffffffffffffffffffffffffffffff16905090565b60006001905090565b60006003905090565b60006060600080600181111561076357610762610b74565b5b600160149054906101000a900460ff16600181111561078557610784610b74565b5b14905060007f0000000000000000000000000000000000000000000000000000000000000000600254426107b991906112c6565b119050600080600080549050119050600080471190508380156107d95750825b80156107e25750815b80156107eb5750805b955085604051806020016040528060008152509550955050505050915091565b60008082815481106108205761081f6112fa565b5b9060005260206000200160009054906101000a900473ffffffffffffffffffffffffffffffffffffffff169050919050565b6000600254905090565b60008080549050905090565b6000808054905082600081518110610883576108826112fa565b5b60200260200101516108959190611358565b905060008082815481106108ac576108ab6112fa565b5b9060005260206000200160009054906101000a900473ffffffffffffffffffffffffffffffffffffffff16905080600160006101000a81548173ffffffffffffffffffffffffffffffffffffffff021916908373ffffffffffffffffffffffffffffffffffffffff1602179055506000600160146101000a81548160ff021916908360018111156109405761093f610b74565b5b0217905550600067ffffffffffffffff8111156109605761095f610c5c565b5b60405190808252806020026020018201604052801561098e5781602001602082028036833780820191505090505b50600090805190602001906109a4929190610a99565b504260028190555060008173ffffffffffffffffffffffffffffffffffffffff16476040516109d2906113ba565b60006040518083038185875af1925050503d8060008114610a0f576040519150601f19603f3d011682016040523d82523d6000602084013e610a14565b606091505b5050905080610a4f576040517fa1d04b3900000000000000000000000000000000000000000000000000000000815260040160405180910390fd5b8173ffffffffffffffffffffffffffffffffffffffff167f5b690ec4a06fe979403046eaeea5b3ce38524683c3001f662c8b5a829632f7df60405160405180910390a25050505050565b828054828255906000526020600020908101928215610b12579160200282015b82811115610b115782518260006101000a81548173ffffffffffffffffffffffffffffffffffffffff021916908373ffffffffffffffffffffffffffffffffffffffff16021790555091602001919060010190610ab9565b5b509050610b1f9190610b23565b5090565b5b80821115610b3c576000816000905550600101610b24565b5090565b6000819050919050565b610b5381610b40565b82525050565b6000602082019050610b6e6000830184610b4a565b92915050565b7f4e487b7100000000000000000000000000000000000000000000000000000000600052602160045260246000fd5b60028110610bb457610bb3610b74565b5b50565b6000819050610bc582610ba3565b919050565b6000610bd582610bb7565b9050919050565b610be581610bca565b82525050565b6000602082019050610c006000830184610bdc565b92915050565b6000604051905090565b600080fd5b600080fd5b610c2381610b40565b8114610c2e57600080fd5b50565b600081359050610c4081610c1a565b92915050565b600080fd5b6000601f19601f8301169050919050565b7f4e487b7100000000000000000000000000000000000000000000000000000000600052604160045260246000fd5b610c9482610c4b565b810181811067ffffffffffffffff82111715610cb357610cb2610c5c565b5b80604052505050565b6000610cc6610c06565b9050610cd28282610c8b565b919050565b600067ffffffffffffffff821115610cf257610cf1610c5c565b5b602082029050602081019050919050565b600080fd5b6000610d1b610d1684610cd7565b610cbc565b90508083825260208201905060208402830185811115610d3e57610d3d610d03565b5b835b81811015610d675780610d538882610c31565b845260208401935050602081019050610d40565b5050509392505050565b600082601f830112610d8657610d85610c46565b5b8135610d96848260208601610d08565b91505092915050565b60008060408385031215610db657610db5610c10565b5b6000610dc485828601610c31565b925050602083013567ffffffffffffffff811115610de557610de4610c15565b5b610df185828601610d71565b9150509250929050565b600080fd5b60008083601f840112610e1657610e15610c46565b5b8235905067ffffffffffffffff811115610e3357610e32610dfb565b5b602083019150836001820283011115610e4f57610e4e610d03565b5b9250929050565b60008060208385031215610e6d57610e6c610c10565b5b600083013567ffffffffffffffff811115610e8b57610e8a610c15565b5b610e9785828601610e00565b92509250509250929050565b600073ffffffffffffffffffffffffffffffffffffffff82169050919050565b6000610ece82610ea3565b9050919050565b610ede81610ec3565b82525050565b6000602082019050610ef96000830184610ed5565b92915050565b600063ffffffff82169050919050565b610f1881610eff565b82525050565b6000602082019050610f336000830184610f0f565b92915050565b600061ffff82169050919050565b610f5081610f39565b82525050565b6000602082019050610f6b6000830184610f47565b92915050565b600080fd5b600067ffffffffffffffff821115610f9157610f90610c5c565b5b610f9a82610c4b565b9050602081019050919050565b82818337600083830152505050565b6000610fc9610fc484610f76565b610cbc565b905082815260208101848484011115610fe557610fe4610f71565b5b610ff0848285610fa7565b509392505050565b600082601f83011261100d5761100c610c46565b5b813561101d848260208601610fb6565b91505092915050565b60006020828403121561103c5761103b610c10565b5b600082013567ffffffffffffffff81111561105a57611059610c15565b5b61106684828501610ff8565b91505092915050565b60008115159050919050565b6110848161106f565b82525050565b600081519050919050565b600082825260208201905092915050565b60005b838110156110c45780820151818401526020810190506110a9565b60008484015250505050565b60006110db8261108a565b6110e58185611095565b93506110f58185602086016110a6565b6110fe81610c4b565b840191505092915050565b600060408201905061111e600083018561107b565b818103602083015261113081846110d0565b90509392505050565b60006020828403121561114f5761114e610c10565b5b600061115d84828501610c31565b91505092915050565b600060408201905061117b6000830185610ed5565b6111886020830184610ed5565b9392505050565b60006060820190506111a46000830186610b4a565b6111b16020830185610b4a565b6111be6040830184610b4a565b949350505050565b6000819050919050565b6111d9816111c6565b82525050565b600067ffffffffffffffff82169050919050565b6111fc816111df565b82525050565b600060a08201905061121760008301886111d0565b61122460208301876111f3565b6112316040830186610f47565b61123e6060830185610f0f565b61124b6080830184610f0f565b9695505050505050565b60008151905061126481610c1a565b92915050565b6000602082840312156112805761127f610c10565b5b600061128e84828501611255565b91505092915050565b7f4e487b7100000000000000000000000000000000000000000000000000000000600052601160045260246000fd5b60006112d182610b40565b91506112dc83610b40565b92508282039050818111156112f4576112f3611297565b5b92915050565b7f4e487b7100000000000000000000000000000000000000000000000000000000600052603260045260246000fd5b7f4e487b7100000000000000000000000000000000000000000000000000000000600052601260045260246000fd5b600061136382610b40565b915061136e83610b40565b92508261137e5761137d611329565b5b828206905092915050565b600081905092915050565b50565b60006113a4600083611389565b91506113af82611394565b600082019050919050565b60006113c582611397565b915081905091905056fea26469706673582212203c57360a1c0fb5d56a920a7ccfd4e7cfd0074d943b3791aa970afb42a67dcb5f64736f6c63430008130033","opcodes":"PUSH2 0x160 PUSH1 0x40 MSTORE CALLVALUE DUP1 ISZERO PUSH3 0x12 JUMPI PUSH1 0x0 DUP1 REVERT JUMPDEST POP PUSH1 0x40 MLOAD PUSH3 0x17CD CODESIZE SUB DUP1 PUSH3 0x17CD DUP4 CODECOPY DUP2 DUP2 ADD PUSH1 0x40 MSTORE DUP2 ADD SWAP1 PUSH3 0x38 SWAP2 SWAP1 PUSH3 0x294 JUMP JUMPDEST DUP6 DUP1 PUSH20 0xFFFFFFFFFFFFFFFFFFFFFFFFFFFFFFFFFFFFFFFF AND PUSH1 0x80 DUP2 PUSH20 0xFFFFFFFFFFFFFFFFFFFFFFFFFFFFFFFFFFFFFFFF AND DUP2 MSTORE POP POP POP DUP5 PUSH1 0xA0 DUP2 DUP2 MSTORE POP POP DUP6 PUSH20 0xFFFFFFFFFFFFFFFFFFFFFFFFFFFFFFFFFFFFFFFF AND PUSH1 0xC0 DUP2 PUSH20 0xFFFFFFFFFFFFFFFFFFFFFFFFFFFFFFFFFFFFFFFF AND DUP2 MSTORE POP POP DUP4 PUSH1 0xE0 DUP2 DUP2 MSTORE POP POP DUP3 PUSH8 0xFFFFFFFFFFFFFFFF AND PUSH2 0x100 DUP2 PUSH8 0xFFFFFFFFFFFFFFFF AND DUP2 MSTORE POP POP DUP2 PUSH4 0xFFFFFFFF AND PUSH2 0x120 DUP2 PUSH4 0xFFFFFFFF AND DUP2 MSTORE POP POP PUSH1 0x0 PUSH1 0x1 PUSH1 0x14 PUSH2 0x100 EXP DUP2 SLOAD DUP2 PUSH1 0xFF MUL NOT AND SWAP1 DUP4 PUSH1 0x1 DUP2 GT ISZERO PUSH3 0x10D JUMPI PUSH3 0x10C PUSH3 0x330 JUMP JUMPDEST JUMPDEST MUL OR SWAP1 SSTORE POP TIMESTAMP PUSH1 0x2 DUP2 SWAP1 SSTORE POP DUP1 PUSH2 0x140 DUP2 DUP2 MSTORE POP POP POP POP POP POP POP POP PUSH3 0x35F JUMP JUMPDEST PUSH1 0x0 DUP1 REVERT JUMPDEST PUSH1 0x0 PUSH20 0xFFFFFFFFFFFFFFFFFFFFFFFFFFFFFFFFFFFFFFFF DUP3 AND SWAP1 POP SWAP2 SWAP1 POP JUMP JUMPDEST PUSH1 0x0 PUSH3 0x160 DUP3 PUSH3 0x133 JUMP JUMPDEST SWAP1 POP SWAP2 SWAP1 POP JUMP JUMPDEST PUSH3 0x172 DUP2 PUSH3 0x153 JUMP JUMPDEST DUP2 EQ PUSH3 0x17E JUMPI PUSH1 0x0 DUP1 REVERT JUMPDEST POP JUMP JUMPDEST PUSH1 0x0 DUP2 MLOAD SWAP1 POP PUSH3 0x192 DUP2 PUSH3 0x167 JUMP JUMPDEST SWAP3 SWAP2 POP POP JUMP JUMPDEST PUSH1 0x0 DUP2 SWAP1 POP SWAP2 SWAP1 POP JUMP JUMPDEST PUSH3 0x1AD DUP2 PUSH3 0x198 JUMP JUMPDEST DUP2 EQ PUSH3 0x1B9 JUMPI PUSH1 0x0 DUP1 REVERT JUMPDEST POP JUMP JUMPDEST PUSH1 0x0 DUP2 MLOAD SWAP1 POP PUSH3 0x1CD DUP2 PUSH3 0x1A2 JUMP JUMPDEST SWAP3 SWAP2 POP POP JUMP JUMPDEST PUSH1 0x0 DUP2 SWAP1 POP SWAP2 SWAP1 POP JUMP JUMPDEST PUSH3 0x1E8 DUP2 PUSH3 0x1D3 JUMP JUMPDEST DUP2 EQ PUSH3 0x1F4 JUMPI PUSH1 0x0 DUP1 REVERT JUMPDEST POP JUMP JUMPDEST PUSH1 0x0 DUP2 MLOAD SWAP1 POP PUSH3 0x208 DUP2 PUSH3 0x1DD JUMP JUMPDEST SWAP3 SWAP2 POP POP JUMP JUMPDEST PUSH1 0x0 PUSH8 0xFFFFFFFFFFFFFFFF DUP3 AND SWAP1 POP SWAP2 SWAP1 POP JUMP JUMPDEST PUSH3 0x22D DUP2 PUSH3 0x20E JUMP JUMPDEST DUP2 EQ PUSH3 0x239 JUMPI PUSH1 0x0 DUP1 REVERT JUMPDEST POP JUMP JUMPDEST PUSH1 0x0 DUP2 MLOAD SWAP1 POP PUSH3 0x24D DUP2 PUSH3 0x222 JUMP JUMPDEST SWAP3 SWAP2 POP POP JUMP JUMPDEST PUSH1 0x0 PUSH4 0xFFFFFFFF DUP3 AND SWAP1 POP SWAP2 SWAP1 POP JUMP JUMPDEST PUSH3 0x26E DUP2 PUSH3 0x253 JUMP JUMPDEST DUP2 EQ PUSH3 0x27A JUMPI PUSH1 0x0 DUP1 REVERT JUMPDEST POP JUMP JUMPDEST PUSH1 0x0 DUP2 MLOAD SWAP1 POP PUSH3 0x28E DUP2 PUSH3 0x263 JUMP JUMPDEST SWAP3 SWAP2 POP POP JUMP JUMPDEST PUSH1 0x0 DUP1 PUSH1 0x0 DUP1 PUSH1 0x0 DUP1 PUSH1 0xC0 DUP8 DUP10 SUB SLT ISZERO PUSH3 0x2B4 JUMPI PUSH3 0x2B3 PUSH3 0x12E JUMP JUMPDEST JUMPDEST PUSH1 0x0 PUSH3 0x2C4 DUP10 DUP3 DUP11 ADD PUSH3 0x181 JUMP JUMPDEST SWAP7 POP POP PUSH1 0x20 PUSH3 0x2D7 DUP10 DUP3 DUP11 ADD PUSH3 0x1BC JUMP JUMPDEST SWAP6 POP POP PUSH1 0x40 PUSH3 0x2EA DUP10 DUP3 DUP11 ADD PUSH3 0x1F7 JUMP JUMPDEST SWAP5 POP POP PUSH1 0x60 PUSH3 0x2FD DUP10 DUP3 DUP11 ADD PUSH3 0x23C JUMP JUMPDEST SWAP4 POP POP PUSH1 0x80 PUSH3 0x310 DUP10 DUP3 DUP11 ADD PUSH3 0x27D JUMP JUMPDEST SWAP3 POP POP PUSH1 0xA0 PUSH3 0x323 DUP10 DUP3 DUP11 ADD PUSH3 0x1BC JUMP JUMPDEST SWAP2 POP POP SWAP3 SWAP6 POP SWAP3 SWAP6 POP SWAP3 SWAP6 JUMP JUMPDEST PUSH32 0x4E487B7100000000000000000000000000000000000000000000000000000000 PUSH1 0x0 MSTORE PUSH1 0x21 PUSH1 0x4 MSTORE PUSH1 0x24 PUSH1 0x0 REVERT JUMPDEST PUSH1 0x80 MLOAD PUSH1 0xA0 MLOAD PUSH1 0xC0 MLOAD PUSH1 0xE0 MLOAD PUSH2 0x100 MLOAD PUSH2 0x120 MLOAD PUSH2 0x140 MLOAD PUSH2 0x1405 PUSH3 0x3C8 PUSH1 0x0 CODECOPY PUSH1 0x0 PUSH2 0x78C ADD MSTORE PUSH1 0x0 PUSH2 0x655 ADD MSTORE PUSH1 0x0 PUSH2 0x632 ADD MSTORE PUSH1 0x0 PUSH2 0x611 ADD MSTORE PUSH1 0x0 PUSH2 0x5D5 ADD MSTORE PUSH1 0x0 DUP2 DUP2 PUSH2 0x2B4 ADD MSTORE PUSH2 0x3B1 ADD MSTORE PUSH1 0x0 DUP2 DUP2 PUSH2 0x2F1 ADD MSTORE PUSH2 0x345 ADD MSTORE PUSH2 0x1405 PUSH1 0x0 RETURN INVALID PUSH1 0x80 PUSH1 0x40 MSTORE PUSH1 0x4 CALLDATASIZE LT PUSH2 0xA7 JUMPI PUSH1 0x0 CALLDATALOAD PUSH1 0xE0 SHR DUP1 PUSH4 0x53A2C19A GT PUSH2 0x64 JUMPI DUP1 PUSH4 0x53A2C19A EQ PUSH2 0x189 JUMPI DUP1 PUSH4 0x5F1B0FD8 EQ PUSH2 0x1B4 JUMPI DUP1 PUSH4 0x6E04FF0D EQ PUSH2 0x1DF JUMPI DUP1 PUSH4 0xE55AE4E8 EQ PUSH2 0x21D JUMPI DUP1 PUSH4 0xF43B52CB EQ PUSH2 0x25A JUMPI DUP1 PUSH4 0xFD6673F5 EQ PUSH2 0x285 JUMPI PUSH2 0xA7 JUMP JUMPDEST DUP1 PUSH4 0x9BC33A7 EQ PUSH2 0xAC JUMPI DUP1 PUSH4 0x115CBAF5 EQ PUSH2 0xD7 JUMPI DUP1 PUSH4 0x1FE543E3 EQ PUSH2 0x102 JUMPI DUP1 PUSH4 0x2CFCC539 EQ PUSH2 0x12B JUMPI DUP1 PUSH4 0x4585E33B EQ PUSH2 0x135 JUMPI DUP1 PUSH4 0x473F1DDC EQ PUSH2 0x15E JUMPI JUMPDEST PUSH1 0x0 DUP1 REVERT JUMPDEST CALLVALUE DUP1 ISZERO PUSH2 0xB8 JUMPI PUSH1 0x0 DUP1 REVERT JUMPDEST POP PUSH2 0xC1 PUSH2 0x2B0 JUMP JUMPDEST PUSH1 0x40 MLOAD PUSH2 0xCE SWAP2 SWAP1 PUSH2 0xB59 JUMP JUMPDEST PUSH1 0x40 MLOAD DUP1 SWAP2 SUB SWAP1 RETURN JUMPDEST CALLVALUE DUP1 ISZERO PUSH2 0xE3 JUMPI PUSH1 0x0 DUP1 REVERT JUMPDEST POP PUSH2 0xEC PUSH2 0x2D8 JUMP JUMPDEST PUSH1 0x40 MLOAD PUSH2 0xF9 SWAP2 SWAP1 PUSH2 0xBEB JUMP JUMPDEST PUSH1 0x40 MLOAD DUP1 SWAP2 SUB SWAP1 RETURN JUMPDEST CALLVALUE DUP1 ISZERO PUSH2 0x10E JUMPI PUSH1 0x0 DUP1 REVERT JUMPDEST POP PUSH2 0x129 PUSH1 0x4 DUP1 CALLDATASIZE SUB DUP2 ADD SWAP1 PUSH2 0x124 SWAP2 SWAP1 PUSH2 0xD9F JUMP JUMPDEST PUSH2 0x2EF JUMP JUMPDEST STOP JUMPDEST PUSH2 0x133 PUSH2 0x3AF JUMP JUMPDEST STOP JUMPDEST CALLVALUE DUP1 ISZERO PUSH2 0x141 JUMPI PUSH1 0x0 DUP1 REVERT JUMPDEST POP PUSH2 0x15C PUSH1 0x4 DUP1 CALLDATASIZE SUB DUP2 ADD SWAP1 PUSH2 0x157 SWAP2 SWAP1 PUSH2 0xE56 JUMP JUMPDEST PUSH2 0x51E JUMP JUMPDEST STOP JUMPDEST CALLVALUE DUP1 ISZERO PUSH2 0x16A JUMPI PUSH1 0x0 DUP1 REVERT JUMPDEST POP PUSH2 0x173 PUSH2 0x70E JUMP JUMPDEST PUSH1 0x40 MLOAD PUSH2 0x180 SWAP2 SWAP1 PUSH2 0xEE4 JUMP JUMPDEST PUSH1 0x40 MLOAD DUP1 SWAP2 SUB SWAP1 RETURN JUMPDEST CALLVALUE DUP1 ISZERO PUSH2 0x195 JUMPI PUSH1 0x0 DUP1 REVERT JUMPDEST POP PUSH2 0x19E PUSH2 0x738 JUMP JUMPDEST PUSH1 0x40 MLOAD PUSH2 0x1AB SWAP2 SWAP1 PUSH2 0xF1E JUMP JUMPDEST PUSH1 0x40 MLOAD DUP1 SWAP2 SUB SWAP1 RETURN JUMPDEST CALLVALUE DUP1 ISZERO PUSH2 0x1C0 JUMPI PUSH1 0x0 DUP1 REVERT JUMPDEST POP PUSH2 0x1C9 PUSH2 0x741 JUMP JUMPDEST PUSH1 0x40 MLOAD PUSH2 0x1D6 SWAP2 SWAP1 PUSH2 0xF56 JUMP JUMPDEST PUSH1 0x40 MLOAD DUP1 SWAP2 SUB SWAP1 RETURN JUMPDEST CALLVALUE DUP1 ISZERO PUSH2 0x1EB JUMPI PUSH1 0x0 DUP1 REVERT JUMPDEST POP PUSH2 0x206 PUSH1 0x4 DUP1 CALLDATASIZE SUB DUP2 ADD SWAP1 PUSH2 0x201 SWAP2 SWAP1 PUSH2 0x1026 JUMP JUMPDEST PUSH2 0x74A JUMP JUMPDEST PUSH1 0x40 MLOAD PUSH2 0x214 SWAP3 SWAP2 SWAP1 PUSH2 0x1109 JUMP JUMPDEST PUSH1 0x40 MLOAD DUP1 SWAP2 SUB SWAP1 RETURN JUMPDEST CALLVALUE DUP1 ISZERO PUSH2 0x229 JUMPI PUSH1 0x0 DUP1 REVERT JUMPDEST POP PUSH2 0x244 PUSH1 0x4 DUP1 CALLDATASIZE SUB DUP2 ADD SWAP1 PUSH2 0x23F SWAP2 SWAP1 PUSH2 0x1139 JUMP JUMPDEST PUSH2 0x80B JUMP JUMPDEST PUSH1 0x40 MLOAD PUSH2 0x251 SWAP2 SWAP1 PUSH2 0xEE4 JUMP JUMPDEST PUSH1 0x40 MLOAD DUP1 SWAP2 SUB SWAP1 RETURN JUMPDEST CALLVALUE DUP1 ISZERO PUSH2 0x266 JUMPI PUSH1 0x0 DUP1 REVERT JUMPDEST POP PUSH2 0x26F PUSH2 0x852 JUMP JUMPDEST PUSH1 0x40 MLOAD PUSH2 0x27C SWAP2 SWAP1 PUSH2 0xB59 JUMP JUMPDEST PUSH1 0x40 MLOAD DUP1 SWAP2 SUB SWAP1 RETURN JUMPDEST CALLVALUE DUP1 ISZERO PUSH2 0x291 JUMPI PUSH1 0x0 DUP1 REVERT JUMPDEST POP PUSH2 0x29A PUSH2 0x85C JUMP JUMPDEST PUSH1 0x40 MLOAD PUSH2 0x2A7 SWAP2 SWAP1 PUSH2 0xB59 JUMP JUMPDEST PUSH1 0x40 MLOAD DUP1 SWAP2 SUB SWAP1 RETURN JUMPDEST PUSH1 0x0 PUSH32 0x0 SWAP1 POP SWAP1 JUMP JUMPDEST PUSH1 0x0 PUSH1 0x1 PUSH1 0x14 SWAP1 SLOAD SWAP1 PUSH2 0x100 EXP SWAP1 DIV PUSH1 0xFF AND SWAP1 POP SWAP1 JUMP JUMPDEST PUSH32 0x0 PUSH20 0xFFFFFFFFFFFFFFFFFFFFFFFFFFFFFFFFFFFFFFFF AND CALLER PUSH20 0xFFFFFFFFFFFFFFFFFFFFFFFFFFFFFFFFFFFFFFFF AND EQ PUSH2 0x3A1 JUMPI CALLER PUSH32 0x0 PUSH1 0x40 MLOAD PUSH32 0x1CF993F400000000000000000000000000000000000000000000000000000000 DUP2 MSTORE PUSH1 0x4 ADD PUSH2 0x398 SWAP3 SWAP2 SWAP1 PUSH2 0x1166 JUMP JUMPDEST PUSH1 0x40 MLOAD DUP1 SWAP2 SUB SWAP1 REVERT JUMPDEST PUSH2 0x3AB DUP3 DUP3 PUSH2 0x868 JUMP JUMPDEST POP POP JUMP JUMPDEST PUSH32 0x0 CALLVALUE LT ISZERO PUSH2 0x409 JUMPI PUSH1 0x40 MLOAD PUSH32 0xBD4E069500000000000000000000000000000000000000000000000000000000 DUP2 MSTORE PUSH1 0x4 ADD PUSH1 0x40 MLOAD DUP1 SWAP2 SUB SWAP1 REVERT JUMPDEST PUSH1 0x0 PUSH1 0x1 DUP2 GT ISZERO PUSH2 0x41D JUMPI PUSH2 0x41C PUSH2 0xB74 JUMP JUMPDEST JUMPDEST PUSH1 0x1 PUSH1 0x14 SWAP1 SLOAD SWAP1 PUSH2 0x100 EXP SWAP1 DIV PUSH1 0xFF AND PUSH1 0x1 DUP2 GT ISZERO PUSH2 0x43F JUMPI PUSH2 0x43E PUSH2 0xB74 JUMP JUMPDEST JUMPDEST EQ PUSH2 0x476 JUMPI PUSH1 0x40 MLOAD PUSH32 0x1425571C00000000000000000000000000000000000000000000000000000000 DUP2 MSTORE PUSH1 0x4 ADD PUSH1 0x40 MLOAD DUP1 SWAP2 SUB SWAP1 REVERT JUMPDEST PUSH1 0x0 CALLER SWAP1 DUP1 PUSH1 0x1 DUP2 SLOAD ADD DUP1 DUP3 SSTORE DUP1 SWAP2 POP POP PUSH1 0x1 SWAP1 SUB SWAP1 PUSH1 0x0 MSTORE PUSH1 0x20 PUSH1 0x0 KECCAK256 ADD PUSH1 0x0 SWAP1 SWAP2 SWAP1 SWAP2 SWAP1 SWAP2 PUSH2 0x100 EXP DUP2 SLOAD DUP2 PUSH20 0xFFFFFFFFFFFFFFFFFFFFFFFFFFFFFFFFFFFFFFFF MUL NOT AND SWAP1 DUP4 PUSH20 0xFFFFFFFFFFFFFFFFFFFFFFFFFFFFFFFFFFFFFFFF AND MUL OR SWAP1 SSTORE POP CALLER PUSH20 0xFFFFFFFFFFFFFFFFFFFFFFFFFFFFFFFFFFFFFFFF AND PUSH32 0x805E1D667BDDB8A95F0F09880CF94F403FB596CE79928D9F29B74203BA284D4 PUSH1 0x40 MLOAD PUSH1 0x40 MLOAD DUP1 SWAP2 SUB SWAP1 LOG2 JUMP JUMPDEST PUSH1 0x0 PUSH2 0x538 PUSH1 0x40 MLOAD DUP1 PUSH1 0x20 ADD PUSH1 0x40 MSTORE DUP1 PUSH1 0x0 DUP2 MSTORE POP PUSH2 0x74A JUMP JUMPDEST POP SWAP1 POP DUP1 PUSH2 0x5A7 JUMPI SELFBALANCE PUSH1 0x0 DUP1 SLOAD SWAP1 POP PUSH1 0x1 PUSH1 0x14 SWAP1 SLOAD SWAP1 PUSH2 0x100 EXP SWAP1 DIV PUSH1 0xFF AND PUSH1 0x1 DUP2 GT ISZERO PUSH2 0x569 JUMPI PUSH2 0x568 PUSH2 0xB74 JUMP JUMPDEST JUMPDEST PUSH1 0x40 MLOAD PUSH32 0x584327AA00000000000000000000000000000000000000000000000000000000 DUP2 MSTORE PUSH1 0x4 ADD PUSH2 0x59E SWAP4 SWAP3 SWAP2 SWAP1 PUSH2 0x118F JUMP JUMPDEST PUSH1 0x40 MLOAD DUP1 SWAP2 SUB SWAP1 REVERT JUMPDEST PUSH1 0x1 DUP1 PUSH1 0x14 PUSH2 0x100 EXP DUP2 SLOAD DUP2 PUSH1 0xFF MUL NOT AND SWAP1 DUP4 PUSH1 0x1 DUP2 GT ISZERO PUSH2 0x5CC JUMPI PUSH2 0x5CB PUSH2 0xB74 JUMP JUMPDEST JUMPDEST MUL OR SWAP1 SSTORE POP PUSH1 0x0 PUSH32 0x0 PUSH20 0xFFFFFFFFFFFFFFFFFFFFFFFFFFFFFFFFFFFFFFFF AND PUSH4 0x5D3B1D30 PUSH32 0x0 PUSH32 0x0 PUSH1 0x3 PUSH32 0x0 PUSH1 0x1 PUSH1 0x40 MLOAD DUP7 PUSH4 0xFFFFFFFF AND PUSH1 0xE0 SHL DUP2 MSTORE PUSH1 0x4 ADD PUSH2 0x696 SWAP6 SWAP5 SWAP4 SWAP3 SWAP2 SWAP1 PUSH2 0x1202 JUMP JUMPDEST PUSH1 0x20 PUSH1 0x40 MLOAD DUP1 DUP4 SUB DUP2 PUSH1 0x0 DUP8 GAS CALL ISZERO DUP1 ISZERO PUSH2 0x6B5 JUMPI RETURNDATASIZE PUSH1 0x0 DUP1 RETURNDATACOPY RETURNDATASIZE PUSH1 0x0 REVERT JUMPDEST POP POP POP POP PUSH1 0x40 MLOAD RETURNDATASIZE PUSH1 0x1F NOT PUSH1 0x1F DUP3 ADD AND DUP3 ADD DUP1 PUSH1 0x40 MSTORE POP DUP2 ADD SWAP1 PUSH2 0x6D9 SWAP2 SWAP1 PUSH2 0x126A JUMP JUMPDEST SWAP1 POP DUP1 PUSH32 0xCD6E45C8998311CAB7E9D4385596CAC867E20A0587194B954FA3A731C93CE78B PUSH1 0x40 MLOAD PUSH1 0x40 MLOAD DUP1 SWAP2 SUB SWAP1 LOG2 POP POP POP POP JUMP JUMPDEST PUSH1 0x0 PUSH1 0x1 PUSH1 0x0 SWAP1 SLOAD SWAP1 PUSH2 0x100 EXP SWAP1 DIV PUSH20 0xFFFFFFFFFFFFFFFFFFFFFFFFFFFFFFFFFFFFFFFF AND SWAP1 POP SWAP1 JUMP JUMPDEST PUSH1 0x0 PUSH1 0x1 SWAP1 POP SWAP1 JUMP JUMPDEST PUSH1 0x0 PUSH1 0x3 SWAP1 POP SWAP1 JUMP JUMPDEST PUSH1 0x0 PUSH1 0x60 PUSH1 0x0 DUP1 PUSH1 0x1 DUP2 GT ISZERO PUSH2 0x763 JUMPI PUSH2 0x762 PUSH2 0xB74 JUMP JUMPDEST JUMPDEST PUSH1 0x1 PUSH1 0x14 SWAP1 SLOAD SWAP1 PUSH2 0x100 EXP SWAP1 DIV PUSH1 0xFF AND PUSH1 0x1 DUP2 GT ISZERO PUSH2 0x785 JUMPI PUSH2 0x784 PUSH2 0xB74 JUMP JUMPDEST JUMPDEST EQ SWAP1 POP PUSH1 0x0 PUSH32 0x0 PUSH1 0x2 SLOAD TIMESTAMP PUSH2 0x7B9 SWAP2 SWAP1 PUSH2 0x12C6 JUMP JUMPDEST GT SWAP1 POP PUSH1 0x0 DUP1 PUSH1 0x0 DUP1 SLOAD SWAP1 POP GT SWAP1 POP PUSH1 0x0 DUP1 SELFBALANCE GT SWAP1 POP DUP4 DUP1 ISZERO PUSH2 0x7D9 JUMPI POP DUP3 JUMPDEST DUP1 ISZERO PUSH2 0x7E2 JUMPI POP DUP2 JUMPDEST DUP1 ISZERO PUSH2 0x7EB JUMPI POP DUP1 JUMPDEST SWAP6 POP DUP6 PUSH1 0x40 MLOAD DUP1 PUSH1 0x20 ADD PUSH1 0x40 MSTORE DUP1 PUSH1 0x0 DUP2 MSTORE POP SWAP6 POP SWAP6 POP POP POP POP POP SWAP2 POP SWAP2 JUMP JUMPDEST PUSH1 0x0 DUP1 DUP3 DUP2 SLOAD DUP2 LT PUSH2 0x820 JUMPI PUSH2 0x81F PUSH2 0x12FA JUMP JUMPDEST JUMPDEST SWAP1 PUSH1 0x0 MSTORE PUSH1 0x20 PUSH1 0x0 KECCAK256 ADD PUSH1 0x0 SWAP1 SLOAD SWAP1 PUSH2 0x100 EXP SWAP1 DIV PUSH20 0xFFFFFFFFFFFFFFFFFFFFFFFFFFFFFFFFFFFFFFFF AND SWAP1 POP SWAP2 SWAP1 POP JUMP JUMPDEST PUSH1 0x0 PUSH1 0x2 SLOAD SWAP1 POP SWAP1 JUMP JUMPDEST PUSH1 0x0 DUP1 DUP1 SLOAD SWAP1 POP SWAP1 POP SWAP1 JUMP JUMPDEST PUSH1 0x0 DUP1 DUP1 SLOAD SWAP1 POP DUP3 PUSH1 0x0 DUP2 MLOAD DUP2 LT PUSH2 0x883 JUMPI PUSH2 0x882 PUSH2 0x12FA JUMP JUMPDEST JUMPDEST PUSH1 0x20 MUL PUSH1 0x20 ADD ADD MLOAD PUSH2 0x895 SWAP2 SWAP1 PUSH2 0x1358 JUMP JUMPDEST SWAP1 POP PUSH1 0x0 DUP1 DUP3 DUP2 SLOAD DUP2 LT PUSH2 0x8AC JUMPI PUSH2 0x8AB PUSH2 0x12FA JUMP JUMPDEST JUMPDEST SWAP1 PUSH1 0x0 MSTORE PUSH1 0x20 PUSH1 0x0 KECCAK256 ADD PUSH1 0x0 SWAP1 SLOAD SWAP1 PUSH2 0x100 EXP SWAP1 DIV PUSH20 0xFFFFFFFFFFFFFFFFFFFFFFFFFFFFFFFFFFFFFFFF AND SWAP1 POP DUP1 PUSH1 0x1 PUSH1 0x0 PUSH2 0x100 EXP DUP2 SLOAD DUP2 PUSH20 0xFFFFFFFFFFFFFFFFFFFFFFFFFFFFFFFFFFFFFFFF MUL NOT AND SWAP1 DUP4 PUSH20 0xFFFFFFFFFFFFFFFFFFFFFFFFFFFFFFFFFFFFFFFF AND MUL OR SWAP1 SSTORE POP PUSH1 0x0 PUSH1 0x1 PUSH1 0x14 PUSH2 0x100 EXP DUP2 SLOAD DUP2 PUSH1 0xFF MUL NOT AND SWAP1 DUP4 PUSH1 0x1 DUP2 GT ISZERO PUSH2 0x940 JUMPI PUSH2 0x93F PUSH2 0xB74 JUMP JUMPDEST JUMPDEST MUL OR SWAP1 SSTORE POP PUSH1 0x0 PUSH8 0xFFFFFFFFFFFFFFFF DUP2 GT ISZERO PUSH2 0x960 JUMPI PUSH2 0x95F PUSH2 0xC5C JUMP JUMPDEST JUMPDEST PUSH1 0x40 MLOAD SWAP1 DUP1 DUP3 MSTORE DUP1 PUSH1 0x20 MUL PUSH1 0x20 ADD DUP3 ADD PUSH1 0x40 MSTORE DUP1 ISZERO PUSH2 0x98E JUMPI DUP2 PUSH1 0x20 ADD PUSH1 0x20 DUP3 MUL DUP1 CALLDATASIZE DUP4 CALLDATACOPY DUP1 DUP3 ADD SWAP2 POP POP SWAP1 POP JUMPDEST POP PUSH1 0x0 SWAP1 DUP1 MLOAD SWAP1 PUSH1 0x20 ADD SWAP1 PUSH2 0x9A4 SWAP3 SWAP2 SWAP1 PUSH2 0xA99 JUMP JUMPDEST POP TIMESTAMP PUSH1 0x2 DUP2 SWAP1 SSTORE POP PUSH1 0x0 DUP2 PUSH20 0xFFFFFFFFFFFFFFFFFFFFFFFFFFFFFFFFFFFFFFFF AND SELFBALANCE PUSH1 0x40 MLOAD PUSH2 0x9D2 SWAP1 PUSH2 0x13BA JUMP JUMPDEST PUSH1 0x0 PUSH1 0x40 MLOAD DUP1 DUP4 SUB DUP2 DUP6 DUP8 GAS CALL SWAP3 POP POP POP RETURNDATASIZE DUP1 PUSH1 0x0 DUP2 EQ PUSH2 0xA0F JUMPI PUSH1 0x40 MLOAD SWAP2 POP PUSH1 0x1F NOT PUSH1 0x3F RETURNDATASIZE ADD AND DUP3 ADD PUSH1 0x40 MSTORE RETURNDATASIZE DUP3 MSTORE RETURNDATASIZE PUSH1 0x0 PUSH1 0x20 DUP5 ADD RETURNDATACOPY PUSH2 0xA14 JUMP JUMPDEST PUSH1 0x60 SWAP2 POP JUMPDEST POP POP SWAP1 POP DUP1 PUSH2 0xA4F JUMPI PUSH1 0x40 MLOAD PUSH32 0xA1D04B3900000000000000000000000000000000000000000000000000000000 DUP2 MSTORE PUSH1 0x4 ADD PUSH1 0x40 MLOAD DUP1 SWAP2 SUB SWAP1 REVERT JUMPDEST DUP2 PUSH20 0xFFFFFFFFFFFFFFFFFFFFFFFFFFFFFFFFFFFFFFFF AND PUSH32 0x5B690EC4A06FE979403046EAEEA5B3CE38524683C3001F662C8B5A829632F7DF PUSH1 0x40 MLOAD PUSH1 0x40 MLOAD DUP1 SWAP2 SUB SWAP1 LOG2 POP POP POP POP POP JUMP JUMPDEST DUP3 DUP1 SLOAD DUP3 DUP3 SSTORE SWAP1 PUSH1 0x0 MSTORE PUSH1 0x20 PUSH1 0x0 KECCAK256 SWAP1 DUP2 ADD SWAP3 DUP3 ISZERO PUSH2 0xB12 JUMPI SWAP2 PUSH1 0x20 MUL DUP3 ADD JUMPDEST DUP3 DUP2 GT ISZERO PUSH2 0xB11 JUMPI DUP3 MLOAD DUP3 PUSH1 0x0 PUSH2 0x100 EXP DUP2 SLOAD DUP2 PUSH20 0xFFFFFFFFFFFFFFFFFFFFFFFFFFFFFFFFFFFFFFFF MUL NOT AND SWAP1 DUP4 PUSH20 0xFFFFFFFFFFFFFFFFFFFFFFFFFFFFFFFFFFFFFFFF AND MUL OR SWAP1 SSTORE POP SWAP2 PUSH1 0x20 ADD SWAP2 SWAP1 PUSH1 0x1 ADD SWAP1 PUSH2 0xAB9 JUMP JUMPDEST JUMPDEST POP SWAP1 POP PUSH2 0xB1F SWAP2 SWAP1 PUSH2 0xB23 JUMP JUMPDEST POP SWAP1 JUMP JUMPDEST JUMPDEST DUP1 DUP3 GT ISZERO PUSH2 0xB3C JUMPI PUSH1 0x0 DUP2 PUSH1 0x0 SWAP1 SSTORE POP PUSH1 0x1 ADD PUSH2 0xB24 JUMP JUMPDEST POP SWAP1 JUMP JUMPDEST PUSH1 0x0 DUP2 SWAP1 POP SWAP2 SWAP1 POP JUMP JUMPDEST PUSH2 0xB53 DUP2 PUSH2 0xB40 JUMP JUMPDEST DUP3 MSTORE POP POP JUMP JUMPDEST PUSH1 0x0 PUSH1 0x20 DUP3 ADD SWAP1 POP PUSH2 0xB6E PUSH1 0x0 DUP4 ADD DUP5 PUSH2 0xB4A JUMP JUMPDEST SWAP3 SWAP2 POP POP JUMP JUMPDEST PUSH32 0x4E487B7100000000000000000000000000000000000000000000000000000000 PUSH1 0x0 MSTORE PUSH1 0x21 PUSH1 0x4 MSTORE PUSH1 0x24 PUSH1 0x0 REVERT JUMPDEST PUSH1 0x2 DUP2 LT PUSH2 0xBB4 JUMPI PUSH2 0xBB3 PUSH2 0xB74 JUMP JUMPDEST JUMPDEST POP JUMP JUMPDEST PUSH1 0x0 DUP2 SWAP1 POP PUSH2 0xBC5 DUP3 PUSH2 0xBA3 JUMP JUMPDEST SWAP2 SWAP1 POP JUMP JUMPDEST PUSH1 0x0 PUSH2 0xBD5 DUP3 PUSH2 0xBB7 JUMP JUMPDEST SWAP1 POP SWAP2 SWAP1 POP JUMP JUMPDEST PUSH2 0xBE5 DUP2 PUSH2 0xBCA JUMP JUMPDEST DUP3 MSTORE POP POP JUMP JUMPDEST PUSH1 0x0 PUSH1 0x20 DUP3 ADD SWAP1 POP PUSH2 0xC00 PUSH1 0x0 DUP4 ADD DUP5 PUSH2 0xBDC JUMP JUMPDEST SWAP3 SWAP2 POP POP JUMP JUMPDEST PUSH1 0x0 PUSH1 0x40 MLOAD SWAP1 POP SWAP1 JUMP JUMPDEST PUSH1 0x0 DUP1 REVERT JUMPDEST PUSH1 0x0 DUP1 REVERT JUMPDEST PUSH2 0xC23 DUP2 PUSH2 0xB40 JUMP JUMPDEST DUP2 EQ PUSH2 0xC2E JUMPI PUSH1 0x0 DUP1 REVERT JUMPDEST POP JUMP JUMPDEST PUSH1 0x0 DUP2 CALLDATALOAD SWAP1 POP PUSH2 0xC40 DUP2 PUSH2 0xC1A JUMP JUMPDEST SWAP3 SWAP2 POP POP JUMP JUMPDEST PUSH1 0x0 DUP1 REVERT JUMPDEST PUSH1 0x0 PUSH1 0x1F NOT PUSH1 0x1F DUP4 ADD AND SWAP1 POP SWAP2 SWAP1 POP JUMP JUMPDEST PUSH32 0x4E487B7100000000000000000000000000000000000000000000000000000000 PUSH1 0x0 MSTORE PUSH1 0x41 PUSH1 0x4 MSTORE PUSH1 0x24 PUSH1 0x0 REVERT JUMPDEST PUSH2 0xC94 DUP3 PUSH2 0xC4B JUMP JUMPDEST DUP2 ADD DUP2 DUP2 LT PUSH8 0xFFFFFFFFFFFFFFFF DUP3 GT OR ISZERO PUSH2 0xCB3 JUMPI PUSH2 0xCB2 PUSH2 0xC5C JUMP JUMPDEST JUMPDEST DUP1 PUSH1 0x40 MSTORE POP POP POP JUMP JUMPDEST PUSH1 0x0 PUSH2 0xCC6 PUSH2 0xC06 JUMP JUMPDEST SWAP1 POP PUSH2 0xCD2 DUP3 DUP3 PUSH2 0xC8B JUMP JUMPDEST SWAP2 SWAP1 POP JUMP JUMPDEST PUSH1 0x0 PUSH8 0xFFFFFFFFFFFFFFFF DUP3 GT ISZERO PUSH2 0xCF2 JUMPI PUSH2 0xCF1 PUSH2 0xC5C JUMP JUMPDEST JUMPDEST PUSH1 0x20 DUP3 MUL SWAP1 POP PUSH1 0x20 DUP2 ADD SWAP1 POP SWAP2 SWAP1 POP JUMP JUMPDEST PUSH1 0x0 DUP1 REVERT JUMPDEST PUSH1 0x0 PUSH2 0xD1B PUSH2 0xD16 DUP5 PUSH2 0xCD7 JUMP JUMPDEST PUSH2 0xCBC JUMP JUMPDEST SWAP1 POP DUP1 DUP4 DUP3 MSTORE PUSH1 0x20 DUP3 ADD SWAP1 POP PUSH1 0x20 DUP5 MUL DUP4 ADD DUP6 DUP2 GT ISZERO PUSH2 0xD3E JUMPI PUSH2 0xD3D PUSH2 0xD03 JUMP JUMPDEST JUMPDEST DUP4 JUMPDEST DUP2 DUP2 LT ISZERO PUSH2 0xD67 JUMPI DUP1 PUSH2 0xD53 DUP9 DUP3 PUSH2 0xC31 JUMP JUMPDEST DUP5 MSTORE PUSH1 0x20 DUP5 ADD SWAP4 POP POP PUSH1 0x20 DUP2 ADD SWAP1 POP PUSH2 0xD40 JUMP JUMPDEST POP POP POP SWAP4 SWAP3 POP POP POP JUMP JUMPDEST PUSH1 0x0 DUP3 PUSH1 0x1F DUP4 ADD SLT PUSH2 0xD86 JUMPI PUSH2 0xD85 PUSH2 0xC46 JUMP JUMPDEST JUMPDEST DUP2 CALLDATALOAD PUSH2 0xD96 DUP5 DUP3 PUSH1 0x20 DUP7 ADD PUSH2 0xD08 JUMP JUMPDEST SWAP2 POP POP SWAP3 SWAP2 POP POP JUMP JUMPDEST PUSH1 0x0 DUP1 PUSH1 0x40 DUP4 DUP6 SUB SLT ISZERO PUSH2 0xDB6 JUMPI PUSH2 0xDB5 PUSH2 0xC10 JUMP JUMPDEST JUMPDEST PUSH1 0x0 PUSH2 0xDC4 DUP6 DUP3 DUP7 ADD PUSH2 0xC31 JUMP JUMPDEST SWAP3 POP POP PUSH1 0x20 DUP4 ADD CALLDATALOAD PUSH8 0xFFFFFFFFFFFFFFFF DUP2 GT ISZERO PUSH2 0xDE5 JUMPI PUSH2 0xDE4 PUSH2 0xC15 JUMP JUMPDEST JUMPDEST PUSH2 0xDF1 DUP6 DUP3 DUP7 ADD PUSH2 0xD71 JUMP JUMPDEST SWAP2 POP POP SWAP3 POP SWAP3 SWAP1 POP JUMP JUMPDEST PUSH1 0x0 DUP1 REVERT JUMPDEST PUSH1 0x0 DUP1 DUP4 PUSH1 0x1F DUP5 ADD SLT PUSH2 0xE16 JUMPI PUSH2 0xE15 PUSH2 0xC46 JUMP JUMPDEST JUMPDEST DUP3 CALLDATALOAD SWAP1 POP PUSH8 0xFFFFFFFFFFFFFFFF DUP2 GT ISZERO PUSH2 0xE33 JUMPI PUSH2 0xE32 PUSH2 0xDFB JUMP JUMPDEST JUMPDEST PUSH1 0x20 DUP4 ADD SWAP2 POP DUP4 PUSH1 0x1 DUP3 MUL DUP4 ADD GT ISZERO PUSH2 0xE4F JUMPI PUSH2 0xE4E PUSH2 0xD03 JUMP JUMPDEST JUMPDEST SWAP3 POP SWAP3 SWAP1 POP JUMP JUMPDEST PUSH1 0x0 DUP1 PUSH1 0x20 DUP4 DUP6 SUB SLT ISZERO PUSH2 0xE6D JUMPI PUSH2 0xE6C PUSH2 0xC10 JUMP JUMPDEST JUMPDEST PUSH1 0x0 DUP4 ADD CALLDATALOAD PUSH8 0xFFFFFFFFFFFFFFFF DUP2 GT ISZERO PUSH2 0xE8B JUMPI PUSH2 0xE8A PUSH2 0xC15 JUMP JUMPDEST JUMPDEST PUSH2 0xE97 DUP6 DUP3 DUP7 ADD PUSH2 0xE00 JUMP JUMPDEST SWAP3 POP SWAP3 POP POP SWAP3 POP SWAP3 SWAP1 POP JUMP JUMPDEST PUSH1 0x0 PUSH20 0xFFFFFFFFFFFFFFFFFFFFFFFFFFFFFFFFFFFFFFFF DUP3 AND SWAP1 POP SWAP2 SWAP1 POP JUMP JUMPDEST PUSH1 0x0 PUSH2 0xECE DUP3 PUSH2 0xEA3 JUMP JUMPDEST SWAP1 POP SWAP2 SWAP1 POP JUMP JUMPDEST PUSH2 0xEDE DUP2 PUSH2 0xEC3 JUMP JUMPDEST DUP3 MSTORE POP POP JUMP JUMPDEST PUSH1 0x0 PUSH1 0x20 DUP3 ADD SWAP1 POP PUSH2 0xEF9 PUSH1 0x0 DUP4 ADD DUP5 PUSH2 0xED5 JUMP JUMPDEST SWAP3 SWAP2 POP POP JUMP JUMPDEST PUSH1 0x0 PUSH4 0xFFFFFFFF DUP3 AND SWAP1 POP SWAP2 SWAP1 POP JUMP JUMPDEST PUSH2 0xF18 DUP2 PUSH2 0xEFF JUMP JUMPDEST DUP3 MSTORE POP POP JUMP JUMPDEST PUSH1 0x0 PUSH1 0x20 DUP3 ADD SWAP1 POP PUSH2 0xF33 PUSH1 0x0 DUP4 ADD DUP5 PUSH2 0xF0F JUMP JUMPDEST SWAP3 SWAP2 POP POP JUMP JUMPDEST PUSH1 0x0 PUSH2 0xFFFF DUP3 AND SWAP1 POP SWAP2 SWAP1 POP JUMP JUMPDEST PUSH2 0xF50 DUP2 PUSH2 0xF39 JUMP JUMPDEST DUP3 MSTORE POP POP JUMP JUMPDEST PUSH1 0x0 PUSH1 0x20 DUP3 ADD SWAP1 POP PUSH2 0xF6B PUSH1 0x0 DUP4 ADD DUP5 PUSH2 0xF47 JUMP JUMPDEST SWAP3 SWAP2 POP POP JUMP JUMPDEST PUSH1 0x0 DUP1 REVERT JUMPDEST PUSH1 0x0 PUSH8 0xFFFFFFFFFFFFFFFF DUP3 GT ISZERO PUSH2 0xF91 JUMPI PUSH2 0xF90 PUSH2 0xC5C JUMP JUMPDEST JUMPDEST PUSH2 0xF9A DUP3 PUSH2 0xC4B JUMP JUMPDEST SWAP1 POP PUSH1 0x20 DUP2 ADD SWAP1 POP SWAP2 SWAP1 POP JUMP JUMPDEST DUP3 DUP2 DUP4 CALLDATACOPY PUSH1 0x0 DUP4 DUP4 ADD MSTORE POP POP POP JUMP JUMPDEST PUSH1 0x0 PUSH2 0xFC9 PUSH2 0xFC4 DUP5 PUSH2 0xF76 JUMP JUMPDEST PUSH2 0xCBC JUMP JUMPDEST SWAP1 POP DUP3 DUP2 MSTORE PUSH1 0x20 DUP2 ADD DUP5 DUP5 DUP5 ADD GT ISZERO PUSH2 0xFE5 JUMPI PUSH2 0xFE4 PUSH2 0xF71 JUMP JUMPDEST JUMPDEST PUSH2 0xFF0 DUP5 DUP3 DUP6 PUSH2 0xFA7 JUMP JUMPDEST POP SWAP4 SWAP3 POP POP POP JUMP JUMPDEST PUSH1 0x0 DUP3 PUSH1 0x1F DUP4 ADD SLT PUSH2 0x100D JUMPI PUSH2 0x100C PUSH2 0xC46 JUMP JUMPDEST JUMPDEST DUP2 CALLDATALOAD PUSH2 0x101D DUP5 DUP3 PUSH1 0x20 DUP7 ADD PUSH2 0xFB6 JUMP JUMPDEST SWAP2 POP POP SWAP3 SWAP2 POP POP JUMP JUMPDEST PUSH1 0x0 PUSH1 0x20 DUP3 DUP5 SUB SLT ISZERO PUSH2 0x103C JUMPI PUSH2 0x103B PUSH2 0xC10 JUMP JUMPDEST JUMPDEST PUSH1 0x0 DUP3 ADD CALLDATALOAD PUSH8 0xFFFFFFFFFFFFFFFF DUP2 GT ISZERO PUSH2 0x105A JUMPI PUSH2 0x1059 PUSH2 0xC15 JUMP JUMPDEST JUMPDEST PUSH2 0x1066 DUP5 DUP3 DUP6 ADD PUSH2 0xFF8 JUMP JUMPDEST SWAP2 POP POP SWAP3 SWAP2 POP POP JUMP JUMPDEST PUSH1 0x0 DUP2 ISZERO ISZERO SWAP1 POP SWAP2 SWAP1 POP JUMP JUMPDEST PUSH2 0x1084 DUP2 PUSH2 0x106F JUMP JUMPDEST DUP3 MSTORE POP POP JUMP JUMPDEST PUSH1 0x0 DUP2 MLOAD SWAP1 POP SWAP2 SWAP1 POP JUMP JUMPDEST PUSH1 0x0 DUP3 DUP3 MSTORE PUSH1 0x20 DUP3 ADD SWAP1 POP SWAP3 SWAP2 POP POP JUMP JUMPDEST PUSH1 0x0 JUMPDEST DUP4 DUP2 LT ISZERO PUSH2 0x10C4 JUMPI DUP1 DUP3 ADD MLOAD DUP2 DUP5 ADD MSTORE PUSH1 0x20 DUP2 ADD SWAP1 POP PUSH2 0x10A9 JUMP JUMPDEST PUSH1 0x0 DUP5 DUP5 ADD MSTORE POP POP POP POP JUMP JUMPDEST PUSH1 0x0 PUSH2 0x10DB DUP3 PUSH2 0x108A JUMP JUMPDEST PUSH2 0x10E5 DUP2 DUP6 PUSH2 0x1095 JUMP JUMPDEST SWAP4 POP PUSH2 0x10F5 DUP2 DUP6 PUSH1 0x20 DUP7 ADD PUSH2 0x10A6 JUMP JUMPDEST PUSH2 0x10FE DUP2 PUSH2 0xC4B JUMP JUMPDEST DUP5 ADD SWAP2 POP POP SWAP3 SWAP2 POP POP JUMP JUMPDEST PUSH1 0x0 PUSH1 0x40 DUP3 ADD SWAP1 POP PUSH2 0x111E PUSH1 0x0 DUP4 ADD DUP6 PUSH2 0x107B JUMP JUMPDEST DUP2 DUP2 SUB PUSH1 0x20 DUP4 ADD MSTORE PUSH2 0x1130 DUP2 DUP5 PUSH2 0x10D0 JUMP JUMPDEST SWAP1 POP SWAP4 SWAP3 POP POP POP JUMP JUMPDEST PUSH1 0x0 PUSH1 0x20 DUP3 DUP5 SUB SLT ISZERO PUSH2 0x114F JUMPI PUSH2 0x114E PUSH2 0xC10 JUMP JUMPDEST JUMPDEST PUSH1 0x0 PUSH2 0x115D DUP5 DUP3 DUP6 ADD PUSH2 0xC31 JUMP JUMPDEST SWAP2 POP POP SWAP3 SWAP2 POP POP JUMP JUMPDEST PUSH1 0x0 PUSH1 0x40 DUP3 ADD SWAP1 POP PUSH2 0x117B PUSH1 0x0 DUP4 ADD DUP6 PUSH2 0xED5 JUMP JUMPDEST PUSH2 0x1188 PUSH1 0x20 DUP4 ADD DUP5 PUSH2 0xED5 JUMP JUMPDEST SWAP4 SWAP3 POP POP POP JUMP JUMPDEST PUSH1 0x0 PUSH1 0x60 DUP3 ADD SWAP1 POP PUSH2 0x11A4 PUSH1 0x0 DUP4 ADD DUP7 PUSH2 0xB4A JUMP JUMPDEST PUSH2 0x11B1 PUSH1 0x20 DUP4 ADD DUP6 PUSH2 0xB4A JUMP JUMPDEST PUSH2 0x11BE PUSH1 0x40 DUP4 ADD DUP5 PUSH2 0xB4A JUMP JUMPDEST SWAP5 SWAP4 POP POP POP POP JUMP JUMPDEST PUSH1 0x0 DUP2 SWAP1 POP SWAP2 SWAP1 POP JUMP JUMPDEST PUSH2 0x11D9 DUP2 PUSH2 0x11C6 JUMP JUMPDEST DUP3 MSTORE POP POP JUMP JUMPDEST PUSH1 0x0 PUSH8 0xFFFFFFFFFFFFFFFF DUP3 AND SWAP1 POP SWAP2 SWAP1 POP JUMP JUMPDEST PUSH2 0x11FC DUP2 PUSH2 0x11DF JUMP JUMPDEST DUP3 MSTORE POP POP JUMP JUMPDEST PUSH1 0x0 PUSH1 0xA0 DUP3 ADD SWAP1 POP PUSH2 0x1217 PUSH1 0x0 DUP4 ADD DUP9 PUSH2 0x11D0 JUMP JUMPDEST PUSH2 0x1224 PUSH1 0x20 DUP4 ADD DUP8 PUSH2 0x11F3 JUMP JUMPDEST PUSH2 0x1231 PUSH1 0x40 DUP4 ADD DUP7 PUSH2 0xF47 JUMP JUMPDEST PUSH2 0x123E PUSH1 0x60 DUP4 ADD DUP6 PUSH2 0xF0F JUMP JUMPDEST PUSH2 0x124B PUSH1 0x80 DUP4 ADD DUP5 PUSH2 0xF0F JUMP JUMPDEST SWAP7 SWAP6 POP POP POP POP POP POP JUMP JUMPDEST PUSH1 0x0 DUP2 MLOAD SWAP1 POP PUSH2 0x1264 DUP2 PUSH2 0xC1A JUMP JUMPDEST SWAP3 SWAP2 POP POP JUMP JUMPDEST PUSH1 0x0 PUSH1 0x20 DUP3 DUP5 SUB SLT ISZERO PUSH2 0x1280 JUMPI PUSH2 0x127F PUSH2 0xC10 JUMP JUMPDEST JUMPDEST PUSH1 0x0 PUSH2 0x128E DUP5 DUP3 DUP6 ADD PUSH2 0x1255 JUMP JUMPDEST SWAP2 POP POP SWAP3 SWAP2 POP POP JUMP JUMPDEST PUSH32 0x4E487B7100000000000000000000000000000000000000000000000000000000 PUSH1 0x0 MSTORE PUSH1 0x11 PUSH1 0x4 MSTORE PUSH1 0x24 PUSH1 0x0 REVERT JUMPDEST PUSH1 0x0 PUSH2 0x12D1 DUP3 PUSH2 0xB40 JUMP JUMPDEST SWAP2 POP PUSH2 0x12DC DUP4 PUSH2 0xB40 JUMP JUMPDEST SWAP3 POP DUP3 DUP3 SUB SWAP1 POP DUP2 DUP2 GT ISZERO PUSH2 0x12F4 JUMPI PUSH2 0x12F3 PUSH2 0x1297 JUMP JUMPDEST JUMPDEST SWAP3 SWAP2 POP POP JUMP JUMPDEST PUSH32 0x4E487B7100000000000000000000000000000000000000000000000000000000 PUSH1 0x0 MSTORE PUSH1 0x32 PUSH1 0x4 MSTORE PUSH1 0x24 PUSH1 0x0 REVERT JUMPDEST PUSH32 0x4E487B7100000000000000000000000000000000000000000000000000000000 PUSH1 0x0 MSTORE PUSH1 0x12 PUSH1 0x4 MSTORE PUSH1 0x24 PUSH1 0x0 REVERT JUMPDEST PUSH1 0x0 PUSH2 0x1363 DUP3 PUSH2 0xB40 JUMP JUMPDEST SWAP2 POP PUSH2 0x136E DUP4 PUSH2 0xB40 JUMP JUMPDEST SWAP3 POP DUP3 PUSH2 0x137E JUMPI PUSH2 0x137D PUSH2 0x1329 JUMP JUMPDEST JUMPDEST DUP3 DUP3 MOD SWAP1 POP SWAP3 SWAP2 POP POP JUMP JUMPDEST PUSH1 0x0 DUP2 SWAP1 POP SWAP3 SWAP2 POP POP JUMP JUMPDEST POP JUMP JUMPDEST PUSH1 0x0 PUSH2 0x13A4 PUSH1 0x0 DUP4 PUSH2 0x1389 JUMP JUMPDEST SWAP2 POP PUSH2 0x13AF DUP3 PUSH2 0x1394 JUMP JUMPDEST PUSH1 0x0 DUP3 ADD SWAP1 POP SWAP2 SWAP1 POP JUMP JUMPDEST PUSH1 0x0 PUSH2 0x13C5 DUP3 PUSH2 0x1397 JUMP JUMPDEST SWAP2 POP DUP2 SWAP1 POP SWAP2 SWAP1 POP JUMP INVALID LOG2 PUSH5 0x6970667358 0x22 SLT KECCAK256 EXTCODECOPY JUMPI CALLDATASIZE EXP SHR 0xF 0xB5 0xD5 PUSH11 0x920A7CCFD4E7CFD0074D94 EXTCODESIZE CALLDATACOPY SWAP2 0xAA SWAP8 EXP 0xFB TIMESTAMP 0xA6 PUSH30 0xCB5F64736F6C634300081300330000000000000000000000000000000000 "},"gasEstimates":{"creation":{"codeDepositCost":"1025000","executionCost":"infinite","totalCost":"infinite"},"external":{"checkUpkeep(bytes)":"infinite","enterRaffle()":"infinite","getEntranceFee()":"infinite","getLatestTimestamp()":"2525","getNumWords()":"343","getNumberOfPlayers()":"2555","getPlayer(uint256)":"5033","getRaffleState()":"2641","getRecentWinner()":"2633","getRequestConfirmations()":"365","performUpkeep(bytes)":"infinite","rawFulfillRandomWords(uint256,uint256[])":"infinite"},"internal":{"fulfillRandomWords(uint256,uint256[] memory)":"infinite"}},"methodIdentifiers":{"checkUpkeep(bytes)":"6e04ff0d","enterRaffle()":"2cfcc539","getEntranceFee()":"09bc33a7","getLatestTimestamp()":"f43b52cb","getNumWords()":"53a2c19a","getNumberOfPlayers()":"fd6673f5","getPlayer(uint256)":"e55ae4e8","getRaffleState()":"115cbaf5","getRecentWinner()":"473f1ddc","getRequestConfirmations()":"5f1b0fd8","performUpkeep(bytes)":"4585e33b","rawFulfillRandomWords(uint256,uint256[])":"1fe543e3"}},"storageLayout":{"storage":[{"astId":243,"contract":"contracts/Raffle.sol:Raffle","label":"s_players","offset":0,"slot":"0","type":"t_array(t_address_payable)dyn_storage"},{"astId":260,"contract":"contracts/Raffle.sol:Raffle","label":"s_recentWinner","offset":0,"slot":"1","type":"t_address"},{"astId":263,"contract":"contracts/Raffle.sol:Raffle","label":"s_raffleState","offset":20,"slot":"1","type":"t_enum(RaffleState)238"},{"astId":265,"contract":"contracts/Raffle.sol:Raffle","label":"s_lastTimeStamp","offset":0,"slot":"2","type":"t_uint256"}],"types":{"t_address":{"encoding":"inplace","label":"address","numberOfBytes":"20"},"t_address_payable":{"encoding":"inplace","label":"address payable","numberOfBytes":"20"},"t_array(t_address_payable)dyn_storage":{"base":"t_address_payable","encoding":"dynamic_array","label":"address payable[]","numberOfBytes":"32"},"t_enum(RaffleState)238":{"encoding":"inplace","label":"enum Raffle.RaffleState","numberOfBytes":"1"},"t_uint256":{"encoding":"inplace","label":"uint256","numberOfBytes":"32"}}},"userdoc":{"kind":"user","methods":{},"notice":"This contract is for creating an untemperable decentralized smart contract raffle","version":1}}}}