{
  "address": "0x10FEc30305043D2462464790059d9d14eb871504",
  "abi": [
    {
      "inputs": [
        {
          "internalType": "address",
          "name": "priceFeedAddress",
          "type": "address"
        }
      ],
      "stateMutability": "nonpayable",
      "type": "constructor"
    },
    {
      "inputs": [],
      "name": "CallFailed",
      "type": "error"
    },
    {
      "inputs": [],
      "name": "NotEnoughSent",
      "type": "error"
    },
    {
      "inputs": [],
      "name": "NotOwner",
      "type": "error"
    },
    {
      "stateMutability": "payable",
      "type": "fallback"
    },
    {
      "inputs": [],
      "name": "MINIMUM_USD",
      "outputs": [
        {
          "internalType": "uint256",
          "name": "",
          "type": "uint256"
        }
      ],
      "stateMutability": "view",
      "type": "function"
    },
    {
      "inputs": [
        {
          "internalType": "address",
          "name": "",
          "type": "address"
        }
      ],
      "name": "addressToAmountFunded",
      "outputs": [
        {
          "internalType": "uint256",
          "name": "",
          "type": "uint256"
        }
      ],
      "stateMutability": "view",
      "type": "function"
    },
    {
      "inputs": [],
      "name": "fund",
      "outputs": [],
      "stateMutability": "payable",
      "type": "function"
    },
    {
      "inputs": [
        {
          "internalType": "uint256",
          "name": "",
          "type": "uint256"
        }
      ],
      "name": "funders",
      "outputs": [
        {
          "internalType": "address",
          "name": "",
          "type": "address"
        }
      ],
      "stateMutability": "view",
      "type": "function"
    },
    {
      "inputs": [],
      "name": "i_owner",
      "outputs": [
        {
          "internalType": "address",
          "name": "",
          "type": "address"
        }
      ],
      "stateMutability": "view",
      "type": "function"
    },
    {
      "inputs": [],
      "name": "i_priceFeed",
      "outputs": [
        {
          "internalType": "contract AggregatorV3Interface",
          "name": "",
          "type": "address"
        }
      ],
      "stateMutability": "view",
      "type": "function"
    },
    {
      "inputs": [],
      "name": "withdraw",
      "outputs": [],
      "stateMutability": "nonpayable",
      "type": "function"
    },
    {
      "stateMutability": "payable",
      "type": "receive"
    }
  ],
  "transactionHash": "0x19f012a1d35b65faa018d9cb9554f8d7d90980a246e9227db84029dc3acdf885",
  "args": [
    "0x694AA1769357215DE4FAC081bf1f309aDC325306"
  ],
  "numDeployments": 1,
  "solcInputHash": "22f3c47fb6f025b81c897ff4304e3727",
  "bytecode": "0x60c060405234801561001057600080fd5b50604051610e83380380610e8383398181016040528101906100329190610103565b3373ffffffffffffffffffffffffffffffffffffffff1660808173ffffffffffffffffffffffffffffffffffffffff16815250508073ffffffffffffffffffffffffffffffffffffffff1660a08173ffffffffffffffffffffffffffffffffffffffff168152505050610130565b600080fd5b600073ffffffffffffffffffffffffffffffffffffffff82169050919050565b60006100d0826100a5565b9050919050565b6100e0816100c5565b81146100eb57600080fd5b50565b6000815190506100fd816100d7565b92915050565b600060208284031215610119576101186100a0565b5b6000610127848285016100ee565b91505092915050565b60805160a051610d20610163600039600081816101b701526105bf01526000818161036a01526105e30152610d206000f3fe6080604052600436106100745760003560e01c8063957b89561161004e578063957b89561461010c578063b60d428814610137578063dba6335f14610141578063dc0d3dff1461016c57610083565b80633ccfd60b1461008d5780633e47d6f3146100a45780636b69a592146100e157610083565b36610083576100816101a9565b005b61008b6101a9565b005b34801561009957600080fd5b506100a2610368565b005b3480156100b057600080fd5b506100cb60048036038101906100c6919061081b565b610599565b6040516100d89190610861565b60405180910390f35b3480156100ed57600080fd5b506100f66105b1565b6040516101039190610861565b60405180910390f35b34801561011857600080fd5b506101216105bd565b60405161012e91906108db565b60405180910390f35b61013f6101a9565b005b34801561014d57600080fd5b506101566105e1565b6040516101639190610905565b60405180910390f35b34801561017857600080fd5b50610193600480360381019061018e919061094c565b610605565b6040516101a09190610905565b60405180910390f35b674563918244f400006101e57f00000000000000000000000000000000000000000000000000000000000000003461064490919063ffffffff16565b1161021c576040517f4a4cbb6200000000000000000000000000000000000000000000000000000000815260040160405180910390fd5b6000600160003373ffffffffffffffffffffffffffffffffffffffff1673ffffffffffffffffffffffffffffffffffffffff168152602001908152602001600020540361030f576000339080600181540180825580915050600190039060005260206000200160009091909190916101000a81548173ffffffffffffffffffffffffffffffffffffffff021916908373ffffffffffffffffffffffffffffffffffffffff16021790555034600160003373ffffffffffffffffffffffffffffffffffffffff1673ffffffffffffffffffffffffffffffffffffffff16815260200190815260200160002081905550610366565b34600160003373ffffffffffffffffffffffffffffffffffffffff1673ffffffffffffffffffffffffffffffffffffffff168152602001908152602001600020600082825461035e91906109a8565b925050819055505b565b7f000000000000000000000000000000000000000000000000000000000000000073ffffffffffffffffffffffffffffffffffffffff163373ffffffffffffffffffffffffffffffffffffffff16146103ed576040517f30cd747100000000000000000000000000000000000000000000000000000000815260040160405180910390fd5b60005b60008054905081101561049257600060016000808481548110610416576104156109dc565b5b9060005260206000200160009054906101000a900473ffffffffffffffffffffffffffffffffffffffff1673ffffffffffffffffffffffffffffffffffffffff1673ffffffffffffffffffffffffffffffffffffffff16815260200190815260200160002081905550808061048a90610a0b565b9150506103f0565b50600067ffffffffffffffff8111156104ae576104ad610a53565b5b6040519080825280602002602001820160405280156104dc5781602001602082028036833780820191505090505b50600090805190602001906104f2929190610711565b5060003373ffffffffffffffffffffffffffffffffffffffff164760405161051990610ab3565b60006040518083038185875af1925050503d8060008114610556576040519150601f19603f3d011682016040523d82523d6000602084013e61055b565b606091505b5050905080610596576040517f3204506f00000000000000000000000000000000000000000000000000000000815260040160405180910390fd5b50565b60016020528060005260406000206000915090505481565b674563918244f4000081565b7f000000000000000000000000000000000000000000000000000000000000000081565b7f000000000000000000000000000000000000000000000000000000000000000081565b6000818154811061061557600080fd5b906000526020600020016000915054906101000a900473ffffffffffffffffffffffffffffffffffffffff1681565b60008061065083610680565b90506000670de0b6b3a764000085836106699190610ac8565b6106739190610b39565b9050809250505092915050565b6000808273ffffffffffffffffffffffffffffffffffffffff1663feaf968c6040518163ffffffff1660e01b815260040160a060405180830381865afa1580156106ce573d6000803e3d6000fd5b505050506040513d601f19601f820116820180604052508101906106f29190610bf7565b5050509150506402540be400816107099190610c72565b915050919050565b82805482825590600052602060002090810192821561078a579160200282015b828111156107895782518260006101000a81548173ffffffffffffffffffffffffffffffffffffffff021916908373ffffffffffffffffffffffffffffffffffffffff16021790555091602001919060010190610731565b5b509050610797919061079b565b5090565b5b808211156107b457600081600090555060010161079c565b5090565b600080fd5b600073ffffffffffffffffffffffffffffffffffffffff82169050919050565b60006107e8826107bd565b9050919050565b6107f8816107dd565b811461080357600080fd5b50565b600081359050610815816107ef565b92915050565b600060208284031215610831576108306107b8565b5b600061083f84828501610806565b91505092915050565b6000819050919050565b61085b81610848565b82525050565b60006020820190506108766000830184610852565b92915050565b6000819050919050565b60006108a161089c610897846107bd565b61087c565b6107bd565b9050919050565b60006108b382610886565b9050919050565b60006108c5826108a8565b9050919050565b6108d5816108ba565b82525050565b60006020820190506108f060008301846108cc565b92915050565b6108ff816107dd565b82525050565b600060208201905061091a60008301846108f6565b92915050565b61092981610848565b811461093457600080fd5b50565b60008135905061094681610920565b92915050565b600060208284031215610962576109616107b8565b5b600061097084828501610937565b91505092915050565b7f4e487b7100000000000000000000000000000000000000000000000000000000600052601160045260246000fd5b60006109b382610848565b91506109be83610848565b92508282019050808211156109d6576109d5610979565b5b92915050565b7f4e487b7100000000000000000000000000000000000000000000000000000000600052603260045260246000fd5b6000610a1682610848565b91507fffffffffffffffffffffffffffffffffffffffffffffffffffffffffffffffff8203610a4857610a47610979565b5b600182019050919050565b7f4e487b7100000000000000000000000000000000000000000000000000000000600052604160045260246000fd5b600081905092915050565b50565b6000610a9d600083610a82565b9150610aa882610a8d565b600082019050919050565b6000610abe82610a90565b9150819050919050565b6000610ad382610848565b9150610ade83610848565b9250828202610aec81610848565b91508282048414831517610b0357610b02610979565b5b5092915050565b7f4e487b7100000000000000000000000000000000000000000000000000000000600052601260045260246000fd5b6000610b4482610848565b9150610b4f83610848565b925082610b5f57610b5e610b0a565b5b828204905092915050565b600069ffffffffffffffffffff82169050919050565b610b8981610b6a565b8114610b9457600080fd5b50565b600081519050610ba681610b80565b92915050565b6000819050919050565b610bbf81610bac565b8114610bca57600080fd5b50565b600081519050610bdc81610bb6565b92915050565b600081519050610bf181610920565b92915050565b600080600080600060a08688031215610c1357610c126107b8565b5b6000610c2188828901610b97565b9550506020610c3288828901610bcd565b9450506040610c4388828901610be2565b9350506060610c5488828901610be2565b9250506080610c6588828901610b97565b9150509295509295909350565b6000610c7d82610bac565b9150610c8883610bac565b9250828202610c9681610bac565b91507f80000000000000000000000000000000000000000000000000000000000000008414600084121615610cce57610ccd610979565b5b8282058414831517610ce357610ce2610979565b5b509291505056fea2646970667358221220f59d6420360777084e4059c083c71a9047a0ca6c692c9b05a5b615f4d8ef00ee64736f6c63430008130033",
  "devdoc": {
    "kind": "dev",
    "methods": {},
    "version": 1
  },
  "userdoc": {
    "kind": "user",
    "methods": {},
    "version": 1
  },
  "storageLayout": {
    "storage": [
      {
        "astId": 65,
        "contract": "contracts/FundMe.sol:FundMe",
        "label": "funders",
        "offset": 0,
        "slot": "0",
        "type": "t_array(t_address)dyn_storage"
      },
      {
        "astId": 69,
        "contract": "contracts/FundMe.sol:FundMe",
        "label": "addressToAmountFunded",
        "offset": 0,
        "slot": "1",
        "type": "t_mapping(t_address,t_uint256)"
      }
    ],
    "types": {
      "t_address": {
        "encoding": "inplace",
        "label": "address",
        "numberOfBytes": "20"
      },
      "t_array(t_address)dyn_storage": {
        "base": "t_address",
        "encoding": "dynamic_array",
        "label": "address[]",
        "numberOfBytes": "32"
      },
      "t_mapping(t_address,t_uint256)": {
        "encoding": "mapping",
        "key": "t_address",
        "label": "mapping(address => uint256)",
        "numberOfBytes": "32",
        "value": "t_uint256"
      },
      "t_uint256": {
        "encoding": "inplace",
        "label": "uint256",
        "numberOfBytes": "32"
      }
    }
  }
}