{
  "address": "0x932F43294646f3102Cdd9c92Fc7d6892Fc632fbF",
  "abi": [
    {
      "inputs": [
        {
          "internalType": "address",
          "name": "priceFeedAddress",
          "type": "address"
        }
      ],
      "stateMutability": "nonpayable",
      "type": "constructor"
    },
    {
      "inputs": [],
      "name": "FundMe__CallFailed",
      "type": "error"
    },
    {
      "inputs": [],
      "name": "FundMe__NotEnoughSent",
      "type": "error"
    },
    {
      "inputs": [],
      "name": "FundMe__NotOwner",
      "type": "error"
    },
    {
      "stateMutability": "payable",
      "type": "fallback"
    },
    {
      "inputs": [],
      "name": "MINIMUM_USD",
      "outputs": [
        {
          "internalType": "uint256",
          "name": "",
          "type": "uint256"
        }
      ],
      "stateMutability": "view",
      "type": "function"
    },
    {
      "inputs": [],
      "name": "fund",
      "outputs": [],
      "stateMutability": "payable",
      "type": "function"
    },
    {
      "inputs": [
        {
          "internalType": "uint256",
          "name": "index",
          "type": "uint256"
        }
      ],
      "name": "getFunder",
      "outputs": [
        {
          "internalType": "address",
          "name": "",
          "type": "address"
        }
      ],
      "stateMutability": "view",
      "type": "function"
    },
    {
      "inputs": [
        {
          "internalType": "address",
          "name": "funder",
          "type": "address"
        }
      ],
      "name": "getFundersAmountFunded",
      "outputs": [
        {
          "internalType": "uint256",
          "name": "",
          "type": "uint256"
        }
      ],
      "stateMutability": "view",
      "type": "function"
    },
    {
      "inputs": [],
      "name": "getOwner",
      "outputs": [
        {
          "internalType": "address",
          "name": "",
          "type": "address"
        }
      ],
      "stateMutability": "view",
      "type": "function"
    },
    {
      "inputs": [],
      "name": "getPriceFeed",
      "outputs": [
        {
          "internalType": "contract AggregatorV3Interface",
          "name": "",
          "type": "address"
        }
      ],
      "stateMutability": "view",
      "type": "function"
    },
    {
      "inputs": [],
      "name": "withdraw",
      "outputs": [],
      "stateMutability": "payable",
      "type": "function"
    },
    {
      "stateMutability": "payable",
      "type": "receive"
    }
  ],
  "transactionHash": "0xf0035d1eba9c25918beaaf274396f9f5831b02ee5de4a01004594a4b87abb3dc",
  "args": [
    "0x694AA1769357215DE4FAC081bf1f309aDC325306"
  ],
  "numDeployments": 1,
  "solcInputHash": "2043ad669db026f4943b8d72c68b453b",
  "bytecode": "0x60c060405234801561001057600080fd5b50604051610f21380380610f2183398181016040528101906100329190610103565b3373ffffffffffffffffffffffffffffffffffffffff1660808173ffffffffffffffffffffffffffffffffffffffff16815250508073ffffffffffffffffffffffffffffffffffffffff1660a08173ffffffffffffffffffffffffffffffffffffffff168152505050610130565b600080fd5b600073ffffffffffffffffffffffffffffffffffffffff82169050919050565b60006100d0826100a5565b9050919050565b6100e0816100c5565b81146100eb57600080fd5b50565b6000815190506100fd816100d7565b92915050565b600060208284031215610119576101186100a0565b5b6000610127848285016100ee565b91505092915050565b60805160a051610dbe610163600039600081816101aa015261062e01526000818161035d01526106060152610dbe6000f3fe6080604052600436106100745760003560e01c80639e87a5cd1161004e5780639e87a5cd146100ed578063b60d428814610118578063cc4f23f214610122578063d7b4750c1461015f57610083565b80633ccfd60b1461008d5780636b69a59214610097578063893d20e8146100c257610083565b366100835761008161019c565b005b61008b61019c565b005b61009561035b565b005b3480156100a357600080fd5b506100ac6105f6565b6040516100b9919061086f565b60405180910390f35b3480156100ce57600080fd5b506100d7610602565b6040516100e491906108cb565b60405180910390f35b3480156100f957600080fd5b5061010261062a565b60405161010f9190610945565b60405180910390f35b61012061019c565b005b34801561012e57600080fd5b5061014960048036038101906101449190610991565b610652565b604051610156919061086f565b60405180910390f35b34801561016b57600080fd5b50610186600480360381019061018191906109ea565b61069b565b60405161019391906108cb565b60405180910390f35b674563918244f400006101d87f0000000000000000000000000000000000000000000000000000000000000000346106e290919063ffffffff16565b1161020f576040517fa46dab6d00000000000000000000000000000000000000000000000000000000815260040160405180910390fd5b6000600160003373ffffffffffffffffffffffffffffffffffffffff1673ffffffffffffffffffffffffffffffffffffffff1681526020019081526020016000205403610302576000339080600181540180825580915050600190039060005260206000200160009091909190916101000a81548173ffffffffffffffffffffffffffffffffffffffff021916908373ffffffffffffffffffffffffffffffffffffffff16021790555034600160003373ffffffffffffffffffffffffffffffffffffffff1673ffffffffffffffffffffffffffffffffffffffff16815260200190815260200160002081905550610359565b34600160003373ffffffffffffffffffffffffffffffffffffffff1673ffffffffffffffffffffffffffffffffffffffff16815260200190815260200160002060008282546103519190610a46565b925050819055505b565b7f000000000000000000000000000000000000000000000000000000000000000073ffffffffffffffffffffffffffffffffffffffff163373ffffffffffffffffffffffffffffffffffffffff16146103e0576040517f579610db00000000000000000000000000000000000000000000000000000000815260040160405180910390fd5b60008080548060200260200160405190810160405280929190818152602001828054801561046357602002820191906000526020600020905b8160009054906101000a900473ffffffffffffffffffffffffffffffffffffffff1673ffffffffffffffffffffffffffffffffffffffff1681526020019060010190808311610419575b5050505050905060005b81518110156104ee57600082828151811061048b5761048a610a7a565b5b602002602001015190506000600160008373ffffffffffffffffffffffffffffffffffffffff1673ffffffffffffffffffffffffffffffffffffffff168152602001908152602001600020819055505080806104e690610aa9565b91505061046d565b50600067ffffffffffffffff81111561050a57610509610af1565b5b6040519080825280602002602001820160405280156105385781602001602082028036833780820191505090505b506000908051906020019061054e9291906107af565b5060003373ffffffffffffffffffffffffffffffffffffffff164760405161057590610b51565b60006040518083038185875af1925050503d80600081146105b2576040519150601f19603f3d011682016040523d82523d6000602084013e6105b7565b606091505b50509050806105f2576040517fa6139a6400000000000000000000000000000000000000000000000000000000815260040160405180910390fd5b5050565b674563918244f4000081565b60007f0000000000000000000000000000000000000000000000000000000000000000905090565b60007f0000000000000000000000000000000000000000000000000000000000000000905090565b6000600160008373ffffffffffffffffffffffffffffffffffffffff1673ffffffffffffffffffffffffffffffffffffffff168152602001908152602001600020549050919050565b60008082815481106106b0576106af610a7a565b5b9060005260206000200160009054906101000a900473ffffffffffffffffffffffffffffffffffffffff169050919050565b6000806106ee8361071e565b90506000670de0b6b3a764000085836107079190610b66565b6107119190610bd7565b9050809250505092915050565b6000808273ffffffffffffffffffffffffffffffffffffffff1663feaf968c6040518163ffffffff1660e01b815260040160a060405180830381865afa15801561076c573d6000803e3d6000fd5b505050506040513d601f19601f820116820180604052508101906107909190610c95565b5050509150506402540be400816107a79190610d10565b915050919050565b828054828255906000526020600020908101928215610828579160200282015b828111156108275782518260006101000a81548173ffffffffffffffffffffffffffffffffffffffff021916908373ffffffffffffffffffffffffffffffffffffffff160217905550916020019190600101906107cf565b5b5090506108359190610839565b5090565b5b8082111561085257600081600090555060010161083a565b5090565b6000819050919050565b61086981610856565b82525050565b60006020820190506108846000830184610860565b92915050565b600073ffffffffffffffffffffffffffffffffffffffff82169050919050565b60006108b58261088a565b9050919050565b6108c5816108aa565b82525050565b60006020820190506108e060008301846108bc565b92915050565b6000819050919050565b600061090b6109066109018461088a565b6108e6565b61088a565b9050919050565b600061091d826108f0565b9050919050565b600061092f82610912565b9050919050565b61093f81610924565b82525050565b600060208201905061095a6000830184610936565b92915050565b600080fd5b61096e816108aa565b811461097957600080fd5b50565b60008135905061098b81610965565b92915050565b6000602082840312156109a7576109a6610960565b5b60006109b58482850161097c565b91505092915050565b6109c781610856565b81146109d257600080fd5b50565b6000813590506109e4816109be565b92915050565b600060208284031215610a00576109ff610960565b5b6000610a0e848285016109d5565b91505092915050565b7f4e487b7100000000000000000000000000000000000000000000000000000000600052601160045260246000fd5b6000610a5182610856565b9150610a5c83610856565b9250828201905080821115610a7457610a73610a17565b5b92915050565b7f4e487b7100000000000000000000000000000000000000000000000000000000600052603260045260246000fd5b6000610ab482610856565b91507fffffffffffffffffffffffffffffffffffffffffffffffffffffffffffffffff8203610ae657610ae5610a17565b5b600182019050919050565b7f4e487b7100000000000000000000000000000000000000000000000000000000600052604160045260246000fd5b600081905092915050565b50565b6000610b3b600083610b20565b9150610b4682610b2b565b600082019050919050565b6000610b5c82610b2e565b9150819050919050565b6000610b7182610856565b9150610b7c83610856565b9250828202610b8a81610856565b91508282048414831517610ba157610ba0610a17565b5b5092915050565b7f4e487b7100000000000000000000000000000000000000000000000000000000600052601260045260246000fd5b6000610be282610856565b9150610bed83610856565b925082610bfd57610bfc610ba8565b5b828204905092915050565b600069ffffffffffffffffffff82169050919050565b610c2781610c08565b8114610c3257600080fd5b50565b600081519050610c4481610c1e565b92915050565b6000819050919050565b610c5d81610c4a565b8114610c6857600080fd5b50565b600081519050610c7a81610c54565b92915050565b600081519050610c8f816109be565b92915050565b600080600080600060a08688031215610cb157610cb0610960565b5b6000610cbf88828901610c35565b9550506020610cd088828901610c6b565b9450506040610ce188828901610c80565b9350506060610cf288828901610c80565b9250506080610d0388828901610c35565b9150509295509295909350565b6000610d1b82610c4a565b9150610d2683610c4a565b9250828202610d3481610c4a565b91507f80000000000000000000000000000000000000000000000000000000000000008414600084121615610d6c57610d6b610a17565b5b8282058414831517610d8157610d80610a17565b5b509291505056fea2646970667358221220ff6f82665d38312ec6250d54d793f675c759acbdcda1ef4f1bfabf20f0be8c1064736f6c63430008130033",
  "devdoc": {
    "author": "Oleh325",
    "details": "This implements price feeds as our library.",
    "kind": "dev",
    "methods": {},
    "title": "FundMe",
    "version": 1
  },
  "userdoc": {
    "kind": "user",
    "methods": {
      "fund()": {
        "notice": "This function is used to fund the contract. It will revert if the amount sent is less than the minimum, which is 5 USD."
      },
      "withdraw()": {
        "notice": "This function is used to withdraw all the funds from the contract. It will revert if the caller is not the owner."
      }
    },
    "notice": "This contract is a demonstration of a sample crowdfunding contract.",
    "version": 1
  },
  "storageLayout": {
    "storage": [
      {
        "astId": 66,
        "contract": "contracts/FundMe.sol:FundMe",
        "label": "s_funders",
        "offset": 0,
        "slot": "0",
        "type": "t_array(t_address)dyn_storage"
      },
      {
        "astId": 70,
        "contract": "contracts/FundMe.sol:FundMe",
        "label": "s_addressToAmountFunded",
        "offset": 0,
        "slot": "1",
        "type": "t_mapping(t_address,t_uint256)"
      }
    ],
    "types": {
      "t_address": {
        "encoding": "inplace",
        "label": "address",
        "numberOfBytes": "20"
      },
      "t_array(t_address)dyn_storage": {
        "base": "t_address",
        "encoding": "dynamic_array",
        "label": "address[]",
        "numberOfBytes": "32"
      },
      "t_mapping(t_address,t_uint256)": {
        "encoding": "mapping",
        "key": "t_address",
        "label": "mapping(address => uint256)",
        "numberOfBytes": "32",
        "value": "t_uint256"
      },
      "t_uint256": {
        "encoding": "inplace",
        "label": "uint256",
        "numberOfBytes": "32"
      }
    }
  }
}